{
  "_format": "hh-sol-artifact-1",
  "contractName": "Escrow",
  "sourceName": "contracts/Escrow.sol",
  "abi": [
    {
      "inputs": [
        {
          "internalType": "address",
          "name": "_propertyContract",
          "type": "address"
        }
      ],
      "stateMutability": "nonpayable",
      "type": "constructor"
    },
    {
      "anonymous": false,
      "inputs": [
        {
          "indexed": true,
          "internalType": "address",
          "name": "from",
          "type": "address"
        },
        {
          "indexed": true,
          "internalType": "address",
          "name": "to",
          "type": "address"
        },
        {
          "indexed": true,
          "internalType": "uint256",
          "name": "propertyId",
          "type": "uint256"
        }
      ],
      "name": "TransferInitiated",
      "type": "event"
    },
    {
      "inputs": [
        {
          "internalType": "uint256",
          "name": "_propertyid",
          "type": "uint256"
        }
      ],
      "name": "approvePurchase",
      "outputs": [],
      "stateMutability": "nonpayable",
      "type": "function"
    },
    {
      "inputs": [
        {
          "internalType": "uint256",
          "name": "_propertyid",
          "type": "uint256"
        }
      ],
      "name": "buyerCancelPurchase",
      "outputs": [
        {
          "internalType": "bool",
          "name": "",
          "type": "bool"
        }
      ],
      "stateMutability": "payable",
      "type": "function"
    },
    {
      "inputs": [
        {
          "internalType": "uint256",
          "name": "_propertyid",
          "type": "uint256"
        }
      ],
      "name": "checkEscrow",
      "outputs": [
        {
          "components": [
            {
              "internalType": "uint256",
              "name": "propertyid",
              "type": "uint256"
            },
            {
              "internalType": "address",
              "name": "seller",
              "type": "address"
            },
            {
              "internalType": "address",
              "name": "buyer",
              "type": "address"
            },
            {
              "internalType": "bool",
              "name": "approval",
              "type": "bool"
            },
            {
              "internalType": "bool",
              "name": "isListed",
              "type": "bool"
            },
            {
              "internalType": "uint256",
              "name": "purchasePrice",
              "type": "uint256"
            },
            {
              "internalType": "uint256",
              "name": "deposit",
              "type": "uint256"
            },
            {
              "internalType": "uint8",
              "name": "fundStatus",
              "type": "uint8"
            }
          ],
          "internalType": "struct Escrow.PropertyEscrow",
          "name": "",
          "type": "tuple"
        }
      ],
      "stateMutability": "view",
      "type": "function"
    },
    {
      "inputs": [
        {
          "internalType": "uint256",
          "name": "_propertyid",
          "type": "uint256"
        }
      ],
      "name": "completePurchase",
      "outputs": [],
      "stateMutability": "payable",
      "type": "function"
    },
    {
      "inputs": [],
      "name": "contractOwner",
      "outputs": [
        {
          "internalType": "address",
          "name": "",
          "type": "address"
        }
      ],
      "stateMutability": "view",
      "type": "function"
    },
    {
      "inputs": [
        {
          "internalType": "uint256",
          "name": "_propertyid",
          "type": "uint256"
        },
        {
          "internalType": "uint256",
          "name": "_purchasePrice",
          "type": "uint256"
        }
      ],
      "name": "createEscrow",
      "outputs": [],
      "stateMutability": "payable",
      "type": "function"
    },
    {
      "inputs": [
        {
          "internalType": "uint256",
          "name": "_propertyid",
          "type": "uint256"
        }
      ],
      "name": "initiatePurchase",
      "outputs": [],
      "stateMutability": "payable",
      "type": "function"
    },
    {
      "inputs": [
        {
          "internalType": "uint256",
          "name": "",
          "type": "uint256"
        }
      ],
      "name": "propertyEscrow",
      "outputs": [
        {
          "internalType": "uint256",
          "name": "propertyid",
          "type": "uint256"
        },
        {
          "internalType": "address",
          "name": "seller",
          "type": "address"
        },
        {
          "internalType": "address",
          "name": "buyer",
          "type": "address"
        },
        {
          "internalType": "bool",
          "name": "approval",
          "type": "bool"
        },
        {
          "internalType": "bool",
          "name": "isListed",
          "type": "bool"
        },
        {
          "internalType": "uint256",
          "name": "purchasePrice",
          "type": "uint256"
        },
        {
          "internalType": "uint256",
          "name": "deposit",
          "type": "uint256"
        },
        {
          "internalType": "uint8",
          "name": "fundStatus",
          "type": "uint8"
        }
      ],
      "stateMutability": "view",
      "type": "function"
    },
    {
      "inputs": [
        {
          "internalType": "uint256",
          "name": "",
          "type": "uint256"
        }
      ],
      "name": "propertyOwner",
      "outputs": [
        {
          "internalType": "address",
          "name": "",
          "type": "address"
        }
      ],
      "stateMutability": "view",
      "type": "function"
    },
    {
      "inputs": [
        {
          "internalType": "uint256",
          "name": "_propertyid",
          "type": "uint256"
        }
      ],
      "name": "releaseFunding",
      "outputs": [],
      "stateMutability": "payable",
      "type": "function"
    },
    {
      "inputs": [
        {
          "internalType": "uint256",
          "name": "_propertyid",
          "type": "uint256"
        }
      ],
      "name": "sellerCancelListing",
      "outputs": [
        {
          "internalType": "bool",
          "name": "",
          "type": "bool"
        }
      ],
      "stateMutability": "payable",
      "type": "function"
    }
  ],
  "bytecode": "0x60806040523480156200001157600080fd5b5060405162002e3538038062002e3583398181016040528101906200003791906200012a565b33600360006101000a81548173ffffffffffffffffffffffffffffffffffffffff021916908373ffffffffffffffffffffffffffffffffffffffff16021790555080600260006101000a81548173ffffffffffffffffffffffffffffffffffffffff021916908373ffffffffffffffffffffffffffffffffffffffff160217905550506200015c565b600080fd5b600073ffffffffffffffffffffffffffffffffffffffff82169050919050565b6000620000f282620000c5565b9050919050565b6200010481620000e5565b81146200011057600080fd5b50565b6000815190506200012481620000f9565b92915050565b600060208284031215620001435762000142620000c0565b5b6000620001538482850162000113565b91505092915050565b612cc9806200016c6000396000f3fe60806040526004361061009c5760003560e01c8063bfeee90d11610064578063bfeee90d1461018a578063c0914f84146101a6578063c0a21d1f146101e3578063ce606ee0146101ff578063d1fedbc21461022a578063dd142be0146102675761009c565b80633b27a95f146100a15780637616eead146100d157806393e15c1014610115578063b37b53f714610145578063b3bcf7521461016e575b600080fd5b6100bb60048036038101906100b69190611ff7565b610283565b6040516100c8919061203f565b60405180910390f35b3480156100dd57600080fd5b506100f860048036038101906100f39190611ff7565b61066f565b60405161010c9897969594939291906120c6565b60405180910390f35b61012f600480360381019061012a9190611ff7565b61071e565b60405161013c919061203f565b60405180910390f35b34801561015157600080fd5b5061016c60048036038101906101679190611ff7565b610beb565b005b61018860048036038101906101839190611ff7565b610dc2565b005b6101a4600480360381019061019f9190611ff7565b61115a565b005b3480156101b257600080fd5b506101cd60048036038101906101c89190611ff7565b611381565b6040516101da9190612222565b60405180910390f35b6101fd60048036038101906101f8919061223e565b6114d1565b005b34801561020b57600080fd5b506102146119aa565b604051610221919061227e565b60405180910390f35b34801561023657600080fd5b50610251600480360381019061024c9190611ff7565b6119d0565b60405161025e919061227e565b60405180910390f35b610281600480360381019061027c9190611ff7565b611a03565b005b60008160008082815260200190815260200160002060020160009054906101000a900473ffffffffffffffffffffffffffffffffffffffff1673ffffffffffffffffffffffffffffffffffffffff163373ffffffffffffffffffffffffffffffffffffffff1614610329576040517f08c379a0000000000000000000000000000000000000000000000000000000008152600401610320906122f6565b60405180910390fd5b60008060008581526020019081526020016000209050600115158160020160159054906101000a900460ff16151514610397576040517f08c379a000000000000000000000000000000000000000000000000000000000815260040161038e90612362565b60405180910390fd5b600073ffffffffffffffffffffffffffffffffffffffff1660008086815260200190815260200160002060020160009054906101000a900473ffffffffffffffffffffffffffffffffffffffff1673ffffffffffffffffffffffffffffffffffffffff1614158015610469575060008085815260200190815260200160002060020160009054906101000a900473ffffffffffffffffffffffffffffffffffffffff1673ffffffffffffffffffffffffffffffffffffffff163373ffffffffffffffffffffffffffffffffffffffff16145b6104a8576040517f08c379a000000000000000000000000000000000000000000000000000000000815260040161049f906122f6565b60405180910390fd5b600080600086815260200190815260200160002060040154905081600401546012600a6104d591906124e4565b476104e0919061252f565b11610520576040517f08c379a0000000000000000000000000000000000000000000000000000000008152600401610517906125bd565b60405180910390fd5b600081905061057a6040518060400160405280601b81526020017f726566756e644465706f736974202564206465706f7369742025640000000000815250826000808a815260200190815260200160002060040154611c34565b3373ffffffffffffffffffffffffffffffffffffffff166108fc829081150290604051600060405180830381858888f193505050501580156105c0573d6000803e3d6000fd5b50600080600088815260200190815260200160002060020160006101000a81548173ffffffffffffffffffffffffffffffffffffffff021916908373ffffffffffffffffffffffffffffffffffffffff160217905550600080600088815260200190815260200160002060020160146101000a81548160ff02191690831515021790555060008360050160006101000a81548160ff021916908360ff1602179055506001945050505050919050565b60006020528060005260406000206000915090508060000154908060010160009054906101000a900473ffffffffffffffffffffffffffffffffffffffff16908060020160009054906101000a900473ffffffffffffffffffffffffffffffffffffffff16908060020160149054906101000a900460ff16908060020160159054906101000a900460ff16908060030154908060040154908060050160009054906101000a900460ff16905088565b60008160008082815260200190815260200160002060010160009054906101000a900473ffffffffffffffffffffffffffffffffffffffff1673ffffffffffffffffffffffffffffffffffffffff163373ffffffffffffffffffffffffffffffffffffffff16146107c4576040517f08c379a00000000000000000000000000000000000000000000000000000000081526004016107bb90612629565b60405180910390fd5b60008060008581526020019081526020016000209050600115158160020160159054906101000a900460ff16151514610832576040517f08c379a000000000000000000000000000000000000000000000000000000000815260040161082990612362565b60405180910390fd5b600073ffffffffffffffffffffffffffffffffffffffff168160020160009054906101000a900473ffffffffffffffffffffffffffffffffffffffff1673ffffffffffffffffffffffffffffffffffffffff16141580156108a7575060018160050160009054906101000a900460ff1660ff16145b156109845780600401546012600a6108bf91906124e4565b476108ca919061252f565b1161090a576040517f08c379a0000000000000000000000000000000000000000000000000000000008152600401610901906125bd565b60405180910390fd5b60008160020160009054906101000a900473ffffffffffffffffffffffffffffffffffffffff1690508073ffffffffffffffffffffffffffffffffffffffff166108fc83600401549081150290604051600060405180830381858888f1935050505015801561097d573d6000803e3d6000fd5b5050610ad3565b600073ffffffffffffffffffffffffffffffffffffffff168160020160009054906101000a900473ffffffffffffffffffffffffffffffffffffffff1673ffffffffffffffffffffffffffffffffffffffff16141580156109f9575060028160050160009054906101000a900460ff1660ff16145b15610ad25780600301546012600a610a1191906124e4565b47610a1c919061252f565b11610a5c576040517f08c379a0000000000000000000000000000000000000000000000000000000008152600401610a53906125bd565b60405180910390fd5b60008160020160009054906101000a900473ffffffffffffffffffffffffffffffffffffffff1690508073ffffffffffffffffffffffffffffffffffffffff166108fc83600301549081150290604051600060405180830381858888f19350505050158015610acf573d6000803e3d6000fd5b50505b5b600260009054906101000a900473ffffffffffffffffffffffffffffffffffffffff1673ffffffffffffffffffffffffffffffffffffffff166323b872dd308360010160009054906101000a900473ffffffffffffffffffffffffffffffffffffffff16876040518463ffffffff1660e01b8152600401610b5693929190612649565b600060405180830381600087803b158015610b7057600080fd5b505af1158015610b84573d6000803e3d6000fd5b5050505060008160020160156101000a81548160ff02191690831515021790555060008160020160146101000a81548160ff02191690831515021790555060058160050160006101000a81548160ff021916908360ff160217905550600192505050919050565b8060008082815260200190815260200160002060010160009054906101000a900473ffffffffffffffffffffffffffffffffffffffff1673ffffffffffffffffffffffffffffffffffffffff163373ffffffffffffffffffffffffffffffffffffffff1614610c8f576040517f08c379a0000000000000000000000000000000000000000000000000000000008152600401610c8690612629565b60405180910390fd5b6001151560008084815260200190815260200160002060020160159054906101000a900460ff16151514610cf8576040517f08c379a0000000000000000000000000000000000000000000000000000000008152600401610cef90612362565b60405180910390fd5b6000151560008084815260200190815260200160002060020160149054906101000a900460ff16151514610d61576040517f08c379a0000000000000000000000000000000000000000000000000000000008152600401610d58906126f2565b60405180910390fd5b600160008084815260200190815260200160002060020160146101000a81548160ff021916908315150217905550600260008084815260200190815260200160002060050160006101000a81548160ff021916908360ff1602179055505050565b600360009054906101000a900473ffffffffffffffffffffffffffffffffffffffff1673ffffffffffffffffffffffffffffffffffffffff163373ffffffffffffffffffffffffffffffffffffffff1614610e52576040517f08c379a0000000000000000000000000000000000000000000000000000000008152600401610e4990612784565b60405180910390fd5b60008060008381526020019081526020016000209050600115158160020160159054906101000a900460ff16151514610ec0576040517f08c379a0000000000000000000000000000000000000000000000000000000008152600401610eb790612362565b60405180910390fd5b600115158160020160149054906101000a900460ff16151514610f18576040517f08c379a0000000000000000000000000000000000000000000000000000000008152600401610f0f90612816565b60405180910390fd5b6000606460628360030154610f2d919061252f565b610f379190612865565b9050610f60604051806060016040528060268152602001612c6e60269139828460030154611c34565b600260009054906101000a900473ffffffffffffffffffffffffffffffffffffffff1673ffffffffffffffffffffffffffffffffffffffff166323b872dd308460020160009054906101000a900473ffffffffffffffffffffffffffffffffffffffff16866040518463ffffffff1660e01b8152600401610fe393929190612649565b600060405180830381600087803b158015610ffd57600080fd5b505af1158015611011573d6000803e3d6000fd5b50505050828260020160009054906101000a900473ffffffffffffffffffffffffffffffffffffffff1673ffffffffffffffffffffffffffffffffffffffff163073ffffffffffffffffffffffffffffffffffffffff167f0cb34e106629dce34b632826bbba6b38e39c5957eb06a27e76efcc3d55da46b560405160405180910390a460008260010160009054906101000a900473ffffffffffffffffffffffffffffffffffffffff1690508073ffffffffffffffffffffffffffffffffffffffff166108fc839081150290604051600060405180830381858888f19350505050158015611103573d6000803e3d6000fd5b5060008360020160156101000a81548160ff021916908315150217905550600015158360020160149054906101000a9050505060048360050160006101000a81548160ff021916908360ff16021790555050505050565b8060008082815260200190815260200160002060020160009054906101000a900473ffffffffffffffffffffffffffffffffffffffff1673ffffffffffffffffffffffffffffffffffffffff163373ffffffffffffffffffffffffffffffffffffffff16146111fe576040517f08c379a00000000000000000000000000000000000000000000000000000000081526004016111f5906122f6565b60405180910390fd5b60008060008481526020019081526020016000209050600115158160020160159054906101000a900460ff1615151461126c576040517f08c379a000000000000000000000000000000000000000000000000000000000815260040161126390612362565b60405180910390fd5b600115158160020160149054906101000a900460ff161515146112c4576040517f08c379a00000000000000000000000000000000000000000000000000000000081526004016112bb90612816565b60405180910390fd5b60006112e2826004015483600301546112dd9190612896565b611cd3565b905034826004015483600301546112f99190612896565b11158160405160200161130c9190612961565b6040516020818303038152906040529061135c576040517f08c379a000000000000000000000000000000000000000000000000000000000815260040161135391906129d1565b60405180910390fd5b5060038260050160006101000a81548160ff021916908360ff16021790555050505050565b611389611f3a565b600080600084815260200190815260200160002090508060405180610100016040529081600082015481526020016001820160009054906101000a900473ffffffffffffffffffffffffffffffffffffffff1673ffffffffffffffffffffffffffffffffffffffff1673ffffffffffffffffffffffffffffffffffffffff1681526020016002820160009054906101000a900473ffffffffffffffffffffffffffffffffffffffff1673ffffffffffffffffffffffffffffffffffffffff1673ffffffffffffffffffffffffffffffffffffffff1681526020016002820160149054906101000a900460ff161515151581526020016002820160159054906101000a900460ff1615151515815260200160038201548152602001600482015481526020016005820160009054906101000a900460ff1660ff1660ff1681525050915050919050565b6000151560008084815260200190815260200160002060020160159054906101000a900460ff1615151461153a576040517f08c379a000000000000000000000000000000000000000000000000000000000815260040161153190612a3f565b60405180910390fd5b3373ffffffffffffffffffffffffffffffffffffffff16600260009054906101000a900473ffffffffffffffffffffffffffffffffffffffff1673ffffffffffffffffffffffffffffffffffffffff16636352211e846040518263ffffffff1660e01b81526004016115ac9190612a5f565b6020604051808303816000875af11580156115cb573d6000803e3d6000fd5b505050506040513d601f19601f820116820180604052508101906115ef9190612aa6565b73ffffffffffffffffffffffffffffffffffffffff1614611645576040517f08c379a000000000000000000000000000000000000000000000000000000000815260040161163c90612b45565b60405180910390fd5b60006040518061010001604052808481526020013373ffffffffffffffffffffffffffffffffffffffff168152602001600073ffffffffffffffffffffffffffffffffffffffff1681526020016000151581526020016001151581526020016012600a6116b291906124e4565b846116bd919061252f565b815260200160646012600a6116d291906124e4565b600a866116df919061252f565b6116e9919061252f565b6116f39190612865565b8152602001600060ff168152509050806000808581526020019081526020016000206000820151816000015560208201518160010160006101000a81548173ffffffffffffffffffffffffffffffffffffffff021916908373ffffffffffffffffffffffffffffffffffffffff16021790555060408201518160020160006101000a81548173ffffffffffffffffffffffffffffffffffffffff021916908373ffffffffffffffffffffffffffffffffffffffff16021790555060608201518160020160146101000a81548160ff02191690831515021790555060808201518160020160156101000a81548160ff02191690831515021790555060a0820151816003015560c0820151816004015560e08201518160050160006101000a81548160ff021916908360ff160217905550905050336001600085815260200190815260200160002060006101000a81548173ffffffffffffffffffffffffffffffffffffffff021916908373ffffffffffffffffffffffffffffffffffffffff160217905550600260009054906101000a900473ffffffffffffffffffffffffffffffffffffffff1673ffffffffffffffffffffffffffffffffffffffff166323b872dd600260009054906101000a900473ffffffffffffffffffffffffffffffffffffffff1673ffffffffffffffffffffffffffffffffffffffff16636352211e866040518263ffffffff1660e01b81526004016119109190612a5f565b6020604051808303816000875af115801561192f573d6000803e3d6000fd5b505050506040513d601f19601f820116820180604052508101906119539190612aa6565b30866040518463ffffffff1660e01b815260040161197393929190612649565b600060405180830381600087803b15801561198d57600080fd5b505af11580156119a1573d6000803e3d6000fd5b50505050505050565b600360009054906101000a900473ffffffffffffffffffffffffffffffffffffffff1681565b60016020528060005260406000206000915054906101000a900473ffffffffffffffffffffffffffffffffffffffff1681565b6001151560008083815260200190815260200160002060020160159054906101000a900460ff16151514611a6c576040517f08c379a0000000000000000000000000000000000000000000000000000000008152600401611a6390612362565b60405180910390fd5b600073ffffffffffffffffffffffffffffffffffffffff1660008083815260200190815260200160002060020160009054906101000a900473ffffffffffffffffffffffffffffffffffffffff1673ffffffffffffffffffffffffffffffffffffffff1614611b10576040517f08c379a0000000000000000000000000000000000000000000000000000000008152600401611b0790612bb1565b60405180910390fd5b6000611b3060008084815260200190815260200160002060040154611cd3565b90503460008084815260200190815260200160002060040154111581604051602001611b5c9190612961565b60405160208183030381529060405290611bac576040517f08c379a0000000000000000000000000000000000000000000000000000000008152600401611ba391906129d1565b60405180910390fd5b503360008084815260200190815260200160002060020160006101000a81548173ffffffffffffffffffffffffffffffffffffffff021916908373ffffffffffffffffffffffffffffffffffffffff160217905550600160008084815260200190815260200160002060050160006101000a81548160ff021916908360ff1602179055505050565b611cce838383604051602401611c4c93929190612bd1565b6040516020818303038152906040527fca47c4eb000000000000000000000000000000000000000000000000000000007bffffffffffffffffffffffffffffffffffffffffffffffffffffffff19166020820180517bffffffffffffffffffffffffffffffffffffffffffffffffffffffff8381831617835250505050611da1565b505050565b606060006001611ce284611dbb565b01905060008167ffffffffffffffff811115611d0157611d00612c0f565b5b6040519080825280601f01601f191660200182016040528015611d335781602001600182028036833780820191505090505b509050600082602001820190505b600115611d96578080600190039150507f3031323334353637383961626364656600000000000000000000000000000000600a86061a8153600a8581611d8a57611d89612836565b5b04945060008503611d41575b819350505050919050565b611db881611db0611f0e611f2f565b63ffffffff16565b50565b600080600090507a184f03e93ff9f4daa797ed6e38ed64bf6a1f0100000000000000008310611e19577a184f03e93ff9f4daa797ed6e38ed64bf6a1f0100000000000000008381611e0f57611e0e612836565b5b0492506040810190505b6d04ee2d6d415b85acef81000000008310611e56576d04ee2d6d415b85acef81000000008381611e4c57611e4b612836565b5b0492506020810190505b662386f26fc100008310611e8557662386f26fc100008381611e7b57611e7a612836565b5b0492506010810190505b6305f5e1008310611eae576305f5e1008381611ea457611ea3612836565b5b0492506008810190505b6127108310611ed3576127108381611ec957611ec8612836565b5b0492506004810190505b60648310611ef65760648381611eec57611eeb612836565b5b0492506002810190505b600a8310611f05576001810190505b80915050919050565b60006a636f6e736f6c652e6c6f679050600080835160208501845afa505050565b611fb2819050919050565b60405180610100016040528060008152602001600073ffffffffffffffffffffffffffffffffffffffff168152602001600073ffffffffffffffffffffffffffffffffffffffff1681526020016000151581526020016000151581526020016000815260200160008152602001600060ff1681525090565b611fba612c3e565b565b600080fd5b6000819050919050565b611fd481611fc1565b8114611fdf57600080fd5b50565b600081359050611ff181611fcb565b92915050565b60006020828403121561200d5761200c611fbc565b5b600061201b84828501611fe2565b91505092915050565b60008115159050919050565b61203981612024565b82525050565b60006020820190506120546000830184612030565b92915050565b61206381611fc1565b82525050565b600073ffffffffffffffffffffffffffffffffffffffff82169050919050565b600061209482612069565b9050919050565b6120a481612089565b82525050565b600060ff82169050919050565b6120c0816120aa565b82525050565b6000610100820190506120dc600083018b61205a565b6120e9602083018a61209b565b6120f6604083018961209b565b6121036060830188612030565b6121106080830187612030565b61211d60a083018661205a565b61212a60c083018561205a565b61213760e08301846120b7565b9998505050505050505050565b61214d81611fc1565b82525050565b61215c81612089565b82525050565b61216b81612024565b82525050565b61217a816120aa565b82525050565b610100820160008201516121976000850182612144565b5060208201516121aa6020850182612153565b5060408201516121bd6040850182612153565b5060608201516121d06060850182612162565b5060808201516121e36080850182612162565b5060a08201516121f660a0850182612144565b5060c082015161220960c0850182612144565b5060e082015161221c60e0850182612171565b50505050565b6000610100820190506122386000830184612180565b92915050565b6000806040838503121561225557612254611fbc565b5b600061226385828601611fe2565b925050602061227485828601611fe2565b9150509250929050565b6000602082019050612293600083018461209b565b92915050565b600082825260208201905092915050565b7f4f6e6c792062757965722063616e2063616c6c2074686973206d6574686f6400600082015250565b60006122e0601f83612299565b91506122eb826122aa565b602082019050919050565b6000602082019050818103600083015261230f816122d3565b9050919050565b7f5468652050726f7065727479206973206e6f74206c6973746564210000000000600082015250565b600061234c601b83612299565b915061235782612316565b602082019050919050565b6000602082019050818103600083015261237b8161233f565b9050919050565b7f4e487b7100000000000000000000000000000000000000000000000000000000600052601160045260246000fd5b60008160011c9050919050565b6000808291508390505b6001851115612408578086048111156123e4576123e3612382565b5b60018516156123f35780820291505b8081029050612401856123b1565b94506123c8565b94509492505050565b60008261242157600190506124dd565b8161242f57600090506124dd565b8160018114612445576002811461244f5761247e565b60019150506124dd565b60ff84111561246157612460612382565b5b8360020a91508482111561247857612477612382565b5b506124dd565b5060208310610133831016604e8410600b84101617156124b35782820a9050838111156124ae576124ad612382565b5b6124dd565b6124c084848460016123be565b925090508184048111156124d7576124d6612382565b5b81810290505b9392505050565b60006124ef82611fc1565b91506124fa83611fc1565b92506125277fffffffffffffffffffffffffffffffffffffffffffffffffffffffffffffffff8484612411565b905092915050565b600061253a82611fc1565b915061254583611fc1565b925082820261255381611fc1565b9150828204841483151761256a57612569612382565b5b5092915050565b7f436f6e74726163742062616c616e6365206973207a65726f0000000000000000600082015250565b60006125a7601883612299565b91506125b282612571565b602082019050919050565b600060208201905081810360008301526125d68161259a565b9050919050565b7f4f6e6c792073656c6c65722063616e2063616c6c2074686973206d6574686f64600082015250565b6000612613602083612299565b915061261e826125dd565b602082019050919050565b6000602082019050818103600083015261264281612606565b9050919050565b600060608201905061265e600083018661209b565b61266b602083018561209b565b612678604083018461205a565b949350505050565b7f5468652050726f706572747920707572636861736520616c726561647920617060008201527f70726f7665640000000000000000000000000000000000000000000000000000602082015250565b60006126dc602683612299565b91506126e782612680565b604082019050919050565b6000602082019050818103600083015261270b816126cf565b9050919050565b7f4f6e6c7920636f6e7472616374206f776e65722063616e2063616c6c2074686960008201527f73206d6574686f64000000000000000000000000000000000000000000000000602082015250565b600061276e602883612299565b915061277982612712565b604082019050919050565b6000602082019050818103600083015261279d81612761565b9050919050565b7f546865205075726368617365206e6f742079657420617070726f76656420627960008201527f207468652073656c6c6572000000000000000000000000000000000000000000602082015250565b6000612800602b83612299565b915061280b826127a4565b604082019050919050565b6000602082019050818103600083015261282f816127f3565b9050919050565b7f4e487b7100000000000000000000000000000000000000000000000000000000600052601260045260246000fd5b600061287082611fc1565b915061287b83611fc1565b92508261288b5761288a612836565b5b828204905092915050565b60006128a182611fc1565b91506128ac83611fc1565b92508282039050818111156128c4576128c3612382565b5b92915050565b7f4275796572206e6f7420656e6f756768206d6f6e657900000000000000000000815250565b600081519050919050565b600081905092915050565b60005b83811015612924578082015181840152602081019050612909565b60008484015250505050565b600061293b826128f0565b61294581856128fb565b9350612955818560208601612906565b80840191505092915050565b600061296c826128ca565b60168201915061297c8284612930565b915081905092915050565b6000601f19601f8301169050919050565b60006129a3826128f0565b6129ad8185612299565b93506129bd818560208601612906565b6129c681612987565b840191505092915050565b600060208201905081810360008301526129eb8184612998565b905092915050565b7f5468652050726f706572747920616c7265616479206c69737465642100000000600082015250565b6000612a29601c83612299565b9150612a34826129f3565b602082019050919050565b60006020820190508181036000830152612a5881612a1c565b9050919050565b6000602082019050612a74600083018461205a565b92915050565b612a8381612089565b8114612a8e57600080fd5b50565b600081519050612aa081612a7a565b92915050565b600060208284031215612abc57612abb611fbc565b5b6000612aca84828501612a91565b91505092915050565b7f596f7520617265206e6f7420746865206f776e6572206f66207468652070726f60008201527f7065727479000000000000000000000000000000000000000000000000000000602082015250565b6000612b2f602583612299565b9150612b3a82612ad3565b604082019050919050565b60006020820190508181036000830152612b5e81612b22565b9050919050565b7f5468652050726f706572747920616c7265616479206861766520627579657200600082015250565b6000612b9b601f83612299565b9150612ba682612b65565b602082019050919050565b60006020820190508181036000830152612bca81612b8e565b9050919050565b60006060820190508181036000830152612beb8186612998565b9050612bfa602083018561205a565b612c07604083018461205a565b949350505050565b7f4e487b7100000000000000000000000000000000000000000000000000000000600052604160045260246000fd5b7f4e487b7100000000000000000000000000000000000000000000000000000000600052605160045260246000fdfe72656c6561736546756e6420256420657363726f772e70757263686173655072696365202564a2646970667358221220aceb78870b9953cbc8b592398351996412818ea6aef888bdac1b7232506949dd64736f6c63430008180033",
  "linkReferences": {},
  "deployedLinkReferences": {}
}