{
  "_format": "hh-sol-artifact-1",
  "contractName": "Escrow",
  "sourceName": "contracts/Escrow.sol",
  "abi": [
    {
      "inputs": [
        {
          "internalType": "address",
          "name": "_propertyContract",
          "type": "address"
        }
      ],
      "stateMutability": "nonpayable",
      "type": "constructor"
    },
    {
      "inputs": [
        {
          "internalType": "uint256",
          "name": "_propertyid",
          "type": "uint256"
        }
      ],
      "name": "approvePurchase",
      "outputs": [],
      "stateMutability": "nonpayable",
      "type": "function"
    },
    {
      "inputs": [
        {
          "internalType": "uint256",
          "name": "_propertyid",
          "type": "uint256"
        }
      ],
      "name": "buyerCancelPurchase",
      "outputs": [
        {
          "internalType": "bool",
          "name": "",
          "type": "bool"
        }
      ],
      "stateMutability": "payable",
      "type": "function"
    },
    {
      "inputs": [
        {
          "internalType": "uint256",
          "name": "_propertyid",
          "type": "uint256"
        }
      ],
      "name": "checkEscrow",
      "outputs": [
        {
          "components": [
            {
              "internalType": "uint256",
              "name": "propertyid",
              "type": "uint256"
            },
            {
              "internalType": "address",
              "name": "seller",
              "type": "address"
            },
            {
              "internalType": "address",
              "name": "buyer",
              "type": "address"
            },
            {
              "internalType": "bool",
              "name": "approval",
              "type": "bool"
            },
            {
              "internalType": "bool",
              "name": "isListed",
              "type": "bool"
            },
            {
              "internalType": "uint256",
              "name": "purchasePrice",
              "type": "uint256"
            },
            {
              "internalType": "uint256",
              "name": "deposit",
              "type": "uint256"
            },
            {
              "internalType": "uint8",
              "name": "fundStatus",
              "type": "uint8"
            }
          ],
          "internalType": "struct Escrow.PropertyEscrow",
          "name": "",
          "type": "tuple"
        }
      ],
      "stateMutability": "view",
      "type": "function"
    },
    {
      "inputs": [
        {
          "internalType": "uint256",
          "name": "_propertyid",
          "type": "uint256"
        }
      ],
      "name": "completePurchase",
      "outputs": [],
      "stateMutability": "payable",
      "type": "function"
    },
    {
      "inputs": [],
      "name": "contractOwner",
      "outputs": [
        {
          "internalType": "address",
          "name": "",
          "type": "address"
        }
      ],
      "stateMutability": "view",
      "type": "function"
    },
    {
      "inputs": [
        {
          "internalType": "uint256",
          "name": "_propertyid",
          "type": "uint256"
        },
        {
          "internalType": "uint256",
          "name": "_purchasePrice",
          "type": "uint256"
        }
      ],
      "name": "createEscrow",
      "outputs": [],
      "stateMutability": "payable",
      "type": "function"
    },
    {
      "inputs": [
        {
          "internalType": "uint256",
          "name": "_propertyid",
          "type": "uint256"
        }
      ],
      "name": "initiatePurchase",
      "outputs": [],
      "stateMutability": "payable",
      "type": "function"
    },
    {
      "inputs": [
        {
          "internalType": "uint256",
          "name": "",
          "type": "uint256"
        }
      ],
      "name": "propertyEscrow",
      "outputs": [
        {
          "internalType": "uint256",
          "name": "propertyid",
          "type": "uint256"
        },
        {
          "internalType": "address",
          "name": "seller",
          "type": "address"
        },
        {
          "internalType": "address",
          "name": "buyer",
          "type": "address"
        },
        {
          "internalType": "bool",
          "name": "approval",
          "type": "bool"
        },
        {
          "internalType": "bool",
          "name": "isListed",
          "type": "bool"
        },
        {
          "internalType": "uint256",
          "name": "purchasePrice",
          "type": "uint256"
        },
        {
          "internalType": "uint256",
          "name": "deposit",
          "type": "uint256"
        },
        {
          "internalType": "uint8",
          "name": "fundStatus",
          "type": "uint8"
        }
      ],
      "stateMutability": "view",
      "type": "function"
    },
    {
      "inputs": [
        {
          "internalType": "uint256",
          "name": "",
          "type": "uint256"
        }
      ],
      "name": "propertyOwner",
      "outputs": [
        {
          "internalType": "address",
          "name": "",
          "type": "address"
        }
      ],
      "stateMutability": "view",
      "type": "function"
    },
    {
      "inputs": [
        {
          "internalType": "uint256",
          "name": "_propertyid",
          "type": "uint256"
        }
      ],
      "name": "releaseFunding",
      "outputs": [],
      "stateMutability": "payable",
      "type": "function"
    },
    {
      "inputs": [
        {
          "internalType": "uint256",
          "name": "_propertyid",
          "type": "uint256"
        }
      ],
      "name": "sellerCancelListing",
      "outputs": [
        {
          "internalType": "bool",
          "name": "",
          "type": "bool"
        }
      ],
      "stateMutability": "payable",
      "type": "function"
    }
  ],
  "bytecode": "0x60806040523480156200001157600080fd5b5060405162002db638038062002db683398181016040528101906200003791906200012a565b33600360006101000a81548173ffffffffffffffffffffffffffffffffffffffff021916908373ffffffffffffffffffffffffffffffffffffffff16021790555080600260006101000a81548173ffffffffffffffffffffffffffffffffffffffff021916908373ffffffffffffffffffffffffffffffffffffffff160217905550506200015c565b600080fd5b600073ffffffffffffffffffffffffffffffffffffffff82169050919050565b6000620000f282620000c5565b9050919050565b6200010481620000e5565b81146200011057600080fd5b50565b6000815190506200012481620000f9565b92915050565b600060208284031215620001435762000142620000c0565b5b6000620001538482850162000113565b91505092915050565b612c4a806200016c6000396000f3fe60806040526004361061009c5760003560e01c8063bfeee90d11610064578063bfeee90d1461018a578063c0914f84146101a6578063c0a21d1f146101e3578063ce606ee0146101ff578063d1fedbc21461022a578063dd142be0146102675761009c565b80633b27a95f146100a15780637616eead146100d157806393e15c1014610115578063b37b53f714610145578063b3bcf7521461016e575b600080fd5b6100bb60048036038101906100b69190611f78565b610283565b6040516100c89190611fc0565b60405180910390f35b3480156100dd57600080fd5b506100f860048036038101906100f39190611f78565b61066f565b60405161010c989796959493929190612047565b60405180910390f35b61012f600480360381019061012a9190611f78565b61071e565b60405161013c9190611fc0565b60405180910390f35b34801561015157600080fd5b5061016c60048036038101906101679190611f78565b610beb565b005b61018860048036038101906101839190611f78565b610dc2565b005b6101a4600480360381019061019f9190611f78565b6110db565b005b3480156101b257600080fd5b506101cd60048036038101906101c89190611f78565b611302565b6040516101da91906121a3565b60405180910390f35b6101fd60048036038101906101f891906121bf565b611452565b005b34801561020b57600080fd5b5061021461192b565b60405161022191906121ff565b60405180910390f35b34801561023657600080fd5b50610251600480360381019061024c9190611f78565b611951565b60405161025e91906121ff565b60405180910390f35b610281600480360381019061027c9190611f78565b611984565b005b60008160008082815260200190815260200160002060020160009054906101000a900473ffffffffffffffffffffffffffffffffffffffff1673ffffffffffffffffffffffffffffffffffffffff163373ffffffffffffffffffffffffffffffffffffffff1614610329576040517f08c379a000000000000000000000000000000000000000000000000000000000815260040161032090612277565b60405180910390fd5b60008060008581526020019081526020016000209050600115158160020160159054906101000a900460ff16151514610397576040517f08c379a000000000000000000000000000000000000000000000000000000000815260040161038e906122e3565b60405180910390fd5b600073ffffffffffffffffffffffffffffffffffffffff1660008086815260200190815260200160002060020160009054906101000a900473ffffffffffffffffffffffffffffffffffffffff1673ffffffffffffffffffffffffffffffffffffffff1614158015610469575060008085815260200190815260200160002060020160009054906101000a900473ffffffffffffffffffffffffffffffffffffffff1673ffffffffffffffffffffffffffffffffffffffff163373ffffffffffffffffffffffffffffffffffffffff16145b6104a8576040517f08c379a000000000000000000000000000000000000000000000000000000000815260040161049f90612277565b60405180910390fd5b600080600086815260200190815260200160002060040154905081600401546012600a6104d59190612465565b476104e091906124b0565b11610520576040517f08c379a00000000000000000000000000000000000000000000000000000000081526004016105179061253e565b60405180910390fd5b600081905061057a6040518060400160405280601b81526020017f726566756e644465706f736974202564206465706f7369742025640000000000815250826000808a815260200190815260200160002060040154611bb5565b3373ffffffffffffffffffffffffffffffffffffffff166108fc829081150290604051600060405180830381858888f193505050501580156105c0573d6000803e3d6000fd5b50600080600088815260200190815260200160002060020160006101000a81548173ffffffffffffffffffffffffffffffffffffffff021916908373ffffffffffffffffffffffffffffffffffffffff160217905550600080600088815260200190815260200160002060020160146101000a81548160ff02191690831515021790555060008360050160006101000a81548160ff021916908360ff1602179055506001945050505050919050565b60006020528060005260406000206000915090508060000154908060010160009054906101000a900473ffffffffffffffffffffffffffffffffffffffff16908060020160009054906101000a900473ffffffffffffffffffffffffffffffffffffffff16908060020160149054906101000a900460ff16908060020160159054906101000a900460ff16908060030154908060040154908060050160009054906101000a900460ff16905088565b60008160008082815260200190815260200160002060010160009054906101000a900473ffffffffffffffffffffffffffffffffffffffff1673ffffffffffffffffffffffffffffffffffffffff163373ffffffffffffffffffffffffffffffffffffffff16146107c4576040517f08c379a00000000000000000000000000000000000000000000000000000000081526004016107bb906125aa565b60405180910390fd5b60008060008581526020019081526020016000209050600115158160020160159054906101000a900460ff16151514610832576040517f08c379a0000000000000000000000000000000000000000000000000000000008152600401610829906122e3565b60405180910390fd5b600073ffffffffffffffffffffffffffffffffffffffff168160020160009054906101000a900473ffffffffffffffffffffffffffffffffffffffff1673ffffffffffffffffffffffffffffffffffffffff16141580156108a7575060018160050160009054906101000a900460ff1660ff16145b156109845780600401546012600a6108bf9190612465565b476108ca91906124b0565b1161090a576040517f08c379a00000000000000000000000000000000000000000000000000000000081526004016109019061253e565b60405180910390fd5b60008160020160009054906101000a900473ffffffffffffffffffffffffffffffffffffffff1690508073ffffffffffffffffffffffffffffffffffffffff166108fc83600401549081150290604051600060405180830381858888f1935050505015801561097d573d6000803e3d6000fd5b5050610ad3565b600073ffffffffffffffffffffffffffffffffffffffff168160020160009054906101000a900473ffffffffffffffffffffffffffffffffffffffff1673ffffffffffffffffffffffffffffffffffffffff16141580156109f9575060028160050160009054906101000a900460ff1660ff16145b15610ad25780600301546012600a610a119190612465565b47610a1c91906124b0565b11610a5c576040517f08c379a0000000000000000000000000000000000000000000000000000000008152600401610a539061253e565b60405180910390fd5b60008160020160009054906101000a900473ffffffffffffffffffffffffffffffffffffffff1690508073ffffffffffffffffffffffffffffffffffffffff166108fc83600301549081150290604051600060405180830381858888f19350505050158015610acf573d6000803e3d6000fd5b50505b5b600260009054906101000a900473ffffffffffffffffffffffffffffffffffffffff1673ffffffffffffffffffffffffffffffffffffffff166323b872dd308360010160009054906101000a900473ffffffffffffffffffffffffffffffffffffffff16876040518463ffffffff1660e01b8152600401610b56939291906125ca565b600060405180830381600087803b158015610b7057600080fd5b505af1158015610b84573d6000803e3d6000fd5b5050505060008160020160156101000a81548160ff02191690831515021790555060008160020160146101000a81548160ff02191690831515021790555060058160050160006101000a81548160ff021916908360ff160217905550600192505050919050565b8060008082815260200190815260200160002060010160009054906101000a900473ffffffffffffffffffffffffffffffffffffffff1673ffffffffffffffffffffffffffffffffffffffff163373ffffffffffffffffffffffffffffffffffffffff1614610c8f576040517f08c379a0000000000000000000000000000000000000000000000000000000008152600401610c86906125aa565b60405180910390fd5b6001151560008084815260200190815260200160002060020160159054906101000a900460ff16151514610cf8576040517f08c379a0000000000000000000000000000000000000000000000000000000008152600401610cef906122e3565b60405180910390fd5b6000151560008084815260200190815260200160002060020160149054906101000a900460ff16151514610d61576040517f08c379a0000000000000000000000000000000000000000000000000000000008152600401610d5890612673565b60405180910390fd5b600160008084815260200190815260200160002060020160146101000a81548160ff021916908315150217905550600260008084815260200190815260200160002060050160006101000a81548160ff021916908360ff1602179055505050565b600360009054906101000a900473ffffffffffffffffffffffffffffffffffffffff1673ffffffffffffffffffffffffffffffffffffffff163373ffffffffffffffffffffffffffffffffffffffff1614610e52576040517f08c379a0000000000000000000000000000000000000000000000000000000008152600401610e4990612705565b60405180910390fd5b60008060008381526020019081526020016000209050600115158160020160159054906101000a900460ff16151514610ec0576040517f08c379a0000000000000000000000000000000000000000000000000000000008152600401610eb7906122e3565b60405180910390fd5b600115158160020160149054906101000a900460ff16151514610f18576040517f08c379a0000000000000000000000000000000000000000000000000000000008152600401610f0f90612797565b60405180910390fd5b6000606460628360030154610f2d91906124b0565b610f3791906127e6565b9050610f60604051806060016040528060268152602001612bef60269139828460030154611bb5565b60008260010160009054906101000a900473ffffffffffffffffffffffffffffffffffffffff1690508073ffffffffffffffffffffffffffffffffffffffff166108fc839081150290604051600060405180830381858888f19350505050158015610fcf573d6000803e3d6000fd5b5060008360020160156101000a81548160ff021916908315150217905550600015158360020160149054906101000a9050505060048360050160006101000a81548160ff021916908360ff160217905550600260009054906101000a900473ffffffffffffffffffffffffffffffffffffffff1673ffffffffffffffffffffffffffffffffffffffff166323b872dd308560020160009054906101000a900473ffffffffffffffffffffffffffffffffffffffff16876040518463ffffffff1660e01b81526004016110a3939291906125ca565b600060405180830381600087803b1580156110bd57600080fd5b505af11580156110d1573d6000803e3d6000fd5b5050505050505050565b8060008082815260200190815260200160002060020160009054906101000a900473ffffffffffffffffffffffffffffffffffffffff1673ffffffffffffffffffffffffffffffffffffffff163373ffffffffffffffffffffffffffffffffffffffff161461117f576040517f08c379a000000000000000000000000000000000000000000000000000000000815260040161117690612277565b60405180910390fd5b60008060008481526020019081526020016000209050600115158160020160159054906101000a900460ff161515146111ed576040517f08c379a00000000000000000000000000000000000000000000000000000000081526004016111e4906122e3565b60405180910390fd5b600115158160020160149054906101000a900460ff16151514611245576040517f08c379a000000000000000000000000000000000000000000000000000000000815260040161123c90612797565b60405180910390fd5b60006112638260040154836003015461125e9190612817565b611c54565b9050348260040154836003015461127a9190612817565b11158160405160200161128d91906128e2565b604051602081830303815290604052906112dd576040517f08c379a00000000000000000000000000000000000000000000000000000000081526004016112d49190612952565b60405180910390fd5b5060038260050160006101000a81548160ff021916908360ff16021790555050505050565b61130a611ebb565b600080600084815260200190815260200160002090508060405180610100016040529081600082015481526020016001820160009054906101000a900473ffffffffffffffffffffffffffffffffffffffff1673ffffffffffffffffffffffffffffffffffffffff1673ffffffffffffffffffffffffffffffffffffffff1681526020016002820160009054906101000a900473ffffffffffffffffffffffffffffffffffffffff1673ffffffffffffffffffffffffffffffffffffffff1673ffffffffffffffffffffffffffffffffffffffff1681526020016002820160149054906101000a900460ff161515151581526020016002820160159054906101000a900460ff1615151515815260200160038201548152602001600482015481526020016005820160009054906101000a900460ff1660ff1660ff1681525050915050919050565b6000151560008084815260200190815260200160002060020160159054906101000a900460ff161515146114bb576040517f08c379a00000000000000000000000000000000000000000000000000000000081526004016114b2906129c0565b60405180910390fd5b3373ffffffffffffffffffffffffffffffffffffffff16600260009054906101000a900473ffffffffffffffffffffffffffffffffffffffff1673ffffffffffffffffffffffffffffffffffffffff16636352211e846040518263ffffffff1660e01b815260040161152d91906129e0565b6020604051808303816000875af115801561154c573d6000803e3d6000fd5b505050506040513d601f19601f820116820180604052508101906115709190612a27565b73ffffffffffffffffffffffffffffffffffffffff16146115c6576040517f08c379a00000000000000000000000000000000000000000000000000000000081526004016115bd90612ac6565b60405180910390fd5b60006040518061010001604052808481526020013373ffffffffffffffffffffffffffffffffffffffff168152602001600073ffffffffffffffffffffffffffffffffffffffff1681526020016000151581526020016001151581526020016012600a6116339190612465565b8461163e91906124b0565b815260200160646012600a6116539190612465565b600a8661166091906124b0565b61166a91906124b0565b61167491906127e6565b8152602001600060ff168152509050806000808581526020019081526020016000206000820151816000015560208201518160010160006101000a81548173ffffffffffffffffffffffffffffffffffffffff021916908373ffffffffffffffffffffffffffffffffffffffff16021790555060408201518160020160006101000a81548173ffffffffffffffffffffffffffffffffffffffff021916908373ffffffffffffffffffffffffffffffffffffffff16021790555060608201518160020160146101000a81548160ff02191690831515021790555060808201518160020160156101000a81548160ff02191690831515021790555060a0820151816003015560c0820151816004015560e08201518160050160006101000a81548160ff021916908360ff160217905550905050336001600085815260200190815260200160002060006101000a81548173ffffffffffffffffffffffffffffffffffffffff021916908373ffffffffffffffffffffffffffffffffffffffff160217905550600260009054906101000a900473ffffffffffffffffffffffffffffffffffffffff1673ffffffffffffffffffffffffffffffffffffffff166323b872dd600260009054906101000a900473ffffffffffffffffffffffffffffffffffffffff1673ffffffffffffffffffffffffffffffffffffffff16636352211e866040518263ffffffff1660e01b815260040161189191906129e0565b6020604051808303816000875af11580156118b0573d6000803e3d6000fd5b505050506040513d601f19601f820116820180604052508101906118d49190612a27565b30866040518463ffffffff1660e01b81526004016118f4939291906125ca565b600060405180830381600087803b15801561190e57600080fd5b505af1158015611922573d6000803e3d6000fd5b50505050505050565b600360009054906101000a900473ffffffffffffffffffffffffffffffffffffffff1681565b60016020528060005260406000206000915054906101000a900473ffffffffffffffffffffffffffffffffffffffff1681565b6001151560008083815260200190815260200160002060020160159054906101000a900460ff161515146119ed576040517f08c379a00000000000000000000000000000000000000000000000000000000081526004016119e4906122e3565b60405180910390fd5b600073ffffffffffffffffffffffffffffffffffffffff1660008083815260200190815260200160002060020160009054906101000a900473ffffffffffffffffffffffffffffffffffffffff1673ffffffffffffffffffffffffffffffffffffffff1614611a91576040517f08c379a0000000000000000000000000000000000000000000000000000000008152600401611a8890612b32565b60405180910390fd5b6000611ab160008084815260200190815260200160002060040154611c54565b90503460008084815260200190815260200160002060040154111581604051602001611add91906128e2565b60405160208183030381529060405290611b2d576040517f08c379a0000000000000000000000000000000000000000000000000000000008152600401611b249190612952565b60405180910390fd5b503360008084815260200190815260200160002060020160006101000a81548173ffffffffffffffffffffffffffffffffffffffff021916908373ffffffffffffffffffffffffffffffffffffffff160217905550600160008084815260200190815260200160002060050160006101000a81548160ff021916908360ff1602179055505050565b611c4f838383604051602401611bcd93929190612b52565b6040516020818303038152906040527fca47c4eb000000000000000000000000000000000000000000000000000000007bffffffffffffffffffffffffffffffffffffffffffffffffffffffff19166020820180517bffffffffffffffffffffffffffffffffffffffffffffffffffffffff8381831617835250505050611d22565b505050565b606060006001611c6384611d3c565b01905060008167ffffffffffffffff811115611c8257611c81612b90565b5b6040519080825280601f01601f191660200182016040528015611cb45781602001600182028036833780820191505090505b509050600082602001820190505b600115611d17578080600190039150507f3031323334353637383961626364656600000000000000000000000000000000600a86061a8153600a8581611d0b57611d0a6127b7565b5b04945060008503611cc2575b819350505050919050565b611d3981611d31611e8f611eb0565b63ffffffff16565b50565b600080600090507a184f03e93ff9f4daa797ed6e38ed64bf6a1f0100000000000000008310611d9a577a184f03e93ff9f4daa797ed6e38ed64bf6a1f0100000000000000008381611d9057611d8f6127b7565b5b0492506040810190505b6d04ee2d6d415b85acef81000000008310611dd7576d04ee2d6d415b85acef81000000008381611dcd57611dcc6127b7565b5b0492506020810190505b662386f26fc100008310611e0657662386f26fc100008381611dfc57611dfb6127b7565b5b0492506010810190505b6305f5e1008310611e2f576305f5e1008381611e2557611e246127b7565b5b0492506008810190505b6127108310611e54576127108381611e4a57611e496127b7565b5b0492506004810190505b60648310611e775760648381611e6d57611e6c6127b7565b5b0492506002810190505b600a8310611e86576001810190505b80915050919050565b60006a636f6e736f6c652e6c6f679050600080835160208501845afa505050565b611f33819050919050565b60405180610100016040528060008152602001600073ffffffffffffffffffffffffffffffffffffffff168152602001600073ffffffffffffffffffffffffffffffffffffffff1681526020016000151581526020016000151581526020016000815260200160008152602001600060ff1681525090565b611f3b612bbf565b565b600080fd5b6000819050919050565b611f5581611f42565b8114611f6057600080fd5b50565b600081359050611f7281611f4c565b92915050565b600060208284031215611f8e57611f8d611f3d565b5b6000611f9c84828501611f63565b91505092915050565b60008115159050919050565b611fba81611fa5565b82525050565b6000602082019050611fd56000830184611fb1565b92915050565b611fe481611f42565b82525050565b600073ffffffffffffffffffffffffffffffffffffffff82169050919050565b600061201582611fea565b9050919050565b6120258161200a565b82525050565b600060ff82169050919050565b6120418161202b565b82525050565b60006101008201905061205d600083018b611fdb565b61206a602083018a61201c565b612077604083018961201c565b6120846060830188611fb1565b6120916080830187611fb1565b61209e60a0830186611fdb565b6120ab60c0830185611fdb565b6120b860e0830184612038565b9998505050505050505050565b6120ce81611f42565b82525050565b6120dd8161200a565b82525050565b6120ec81611fa5565b82525050565b6120fb8161202b565b82525050565b6101008201600082015161211860008501826120c5565b50602082015161212b60208501826120d4565b50604082015161213e60408501826120d4565b50606082015161215160608501826120e3565b50608082015161216460808501826120e3565b5060a082015161217760a08501826120c5565b5060c082015161218a60c08501826120c5565b5060e082015161219d60e08501826120f2565b50505050565b6000610100820190506121b96000830184612101565b92915050565b600080604083850312156121d6576121d5611f3d565b5b60006121e485828601611f63565b92505060206121f585828601611f63565b9150509250929050565b6000602082019050612214600083018461201c565b92915050565b600082825260208201905092915050565b7f4f6e6c792062757965722063616e2063616c6c2074686973206d6574686f6400600082015250565b6000612261601f8361221a565b915061226c8261222b565b602082019050919050565b6000602082019050818103600083015261229081612254565b9050919050565b7f5468652050726f7065727479206973206e6f74206c6973746564210000000000600082015250565b60006122cd601b8361221a565b91506122d882612297565b602082019050919050565b600060208201905081810360008301526122fc816122c0565b9050919050565b7f4e487b7100000000000000000000000000000000000000000000000000000000600052601160045260246000fd5b60008160011c9050919050565b6000808291508390505b60018511156123895780860481111561236557612364612303565b5b60018516156123745780820291505b808102905061238285612332565b9450612349565b94509492505050565b6000826123a2576001905061245e565b816123b0576000905061245e565b81600181146123c657600281146123d0576123ff565b600191505061245e565b60ff8411156123e2576123e1612303565b5b8360020a9150848211156123f9576123f8612303565b5b5061245e565b5060208310610133831016604e8410600b84101617156124345782820a90508381111561242f5761242e612303565b5b61245e565b612441848484600161233f565b9250905081840481111561245857612457612303565b5b81810290505b9392505050565b600061247082611f42565b915061247b83611f42565b92506124a87fffffffffffffffffffffffffffffffffffffffffffffffffffffffffffffffff8484612392565b905092915050565b60006124bb82611f42565b91506124c683611f42565b92508282026124d481611f42565b915082820484148315176124eb576124ea612303565b5b5092915050565b7f436f6e74726163742062616c616e6365206973207a65726f0000000000000000600082015250565b600061252860188361221a565b9150612533826124f2565b602082019050919050565b600060208201905081810360008301526125578161251b565b9050919050565b7f4f6e6c792073656c6c65722063616e2063616c6c2074686973206d6574686f64600082015250565b600061259460208361221a565b915061259f8261255e565b602082019050919050565b600060208201905081810360008301526125c381612587565b9050919050565b60006060820190506125df600083018661201c565b6125ec602083018561201c565b6125f96040830184611fdb565b949350505050565b7f5468652050726f706572747920707572636861736520616c726561647920617060008201527f70726f7665640000000000000000000000000000000000000000000000000000602082015250565b600061265d60268361221a565b915061266882612601565b604082019050919050565b6000602082019050818103600083015261268c81612650565b9050919050565b7f4f6e6c7920636f6e7472616374206f776e65722063616e2063616c6c2074686960008201527f73206d6574686f64000000000000000000000000000000000000000000000000602082015250565b60006126ef60288361221a565b91506126fa82612693565b604082019050919050565b6000602082019050818103600083015261271e816126e2565b9050919050565b7f546865205075726368617365206e6f742079657420617070726f76656420627960008201527f207468652073656c6c6572000000000000000000000000000000000000000000602082015250565b6000612781602b8361221a565b915061278c82612725565b604082019050919050565b600060208201905081810360008301526127b081612774565b9050919050565b7f4e487b7100000000000000000000000000000000000000000000000000000000600052601260045260246000fd5b60006127f182611f42565b91506127fc83611f42565b92508261280c5761280b6127b7565b5b828204905092915050565b600061282282611f42565b915061282d83611f42565b925082820390508181111561284557612844612303565b5b92915050565b7f4275796572206e6f7420656e6f756768206d6f6e657900000000000000000000815250565b600081519050919050565b600081905092915050565b60005b838110156128a557808201518184015260208101905061288a565b60008484015250505050565b60006128bc82612871565b6128c6818561287c565b93506128d6818560208601612887565b80840191505092915050565b60006128ed8261284b565b6016820191506128fd82846128b1565b915081905092915050565b6000601f19601f8301169050919050565b600061292482612871565b61292e818561221a565b935061293e818560208601612887565b61294781612908565b840191505092915050565b6000602082019050818103600083015261296c8184612919565b905092915050565b7f5468652050726f706572747920616c7265616479206c69737465642100000000600082015250565b60006129aa601c8361221a565b91506129b582612974565b602082019050919050565b600060208201905081810360008301526129d98161299d565b9050919050565b60006020820190506129f56000830184611fdb565b92915050565b612a048161200a565b8114612a0f57600080fd5b50565b600081519050612a21816129fb565b92915050565b600060208284031215612a3d57612a3c611f3d565b5b6000612a4b84828501612a12565b91505092915050565b7f596f7520617265206e6f7420746865206f776e6572206f66207468652070726f60008201527f7065727479000000000000000000000000000000000000000000000000000000602082015250565b6000612ab060258361221a565b9150612abb82612a54565b604082019050919050565b60006020820190508181036000830152612adf81612aa3565b9050919050565b7f5468652050726f706572747920616c7265616479206861766520627579657200600082015250565b6000612b1c601f8361221a565b9150612b2782612ae6565b602082019050919050565b60006020820190508181036000830152612b4b81612b0f565b9050919050565b60006060820190508181036000830152612b6c8186612919565b9050612b7b6020830185611fdb565b612b886040830184611fdb565b949350505050565b7f4e487b7100000000000000000000000000000000000000000000000000000000600052604160045260246000fd5b7f4e487b7100000000000000000000000000000000000000000000000000000000600052605160045260246000fdfe72656c6561736546756e6420256420657363726f772e70757263686173655072696365202564a2646970667358221220bd10bdcb28750430352743f3812d63592993776dfabf1cf703c95d6893ccaa1f64736f6c63430008180033",
  "linkReferences": {},
  "deployedLinkReferences": {}
}